:020000040800F2
:1000000078E20020A5020008AD020008AF02000857
:10001000B1020008B3020008B502000800000000A9
:10002000000000000000000000000000B70200080F
:10003000B902000800000000BB020008BD02000871
:10004000BF020008BF020008BF020008BF0200088C
:10005000BF020008BF020008BF020008BF0200087C
:10006000BF020008BF020008BF020008BF0200086C
:10007000BF020008BF020008BF020008BF0200085C
:10008000BF020008BF020008BF020008BF0200084C
:10009000BF020008BF020008BF020008BF0200083C
:1000A000BF020008BF020008BF020008BF0200082C
:1000B000BF020008BF020008BF020008BF0200081C
:1000C000BF020008BF020008BF020008BF0200080C
:1000D000BF020008D54B0008F94B00081D4C000872
:1000E000BF020008BF020008BF020008BF020008EC
:1000F000BF020008BF020008BF020008BF020008DC
:10010000BF020008BF020008BF020008BF020008CB
:10011000BF020008BF020008BF020008BF020008BB
:10012000BF020008BF020008BF020008BF020008AB
:10013000BF0200080000000000000000BF0200082D
:10014000BF020008BF020008BF020008BF0200088B
:10015000BF020008BF020008BF020008BF0200087B
:10016000BF020008BF020008BF020008BF0200086B
:10017000BF020008BF020008BF0200080000000024
:1001800000000000BF0200080000000000000000A6
:10019000BF0200080000000000000000BF020008CD
:1001A000000000000000000000000000BF02000886
:1001B000BF020008BF020008BF020008BF0200081B
:1001C000BF02000800F002F800F05CF80AA090E816
:1001D000000C82448344AAF10107DA4501D100F002
:1001E00051F8AFF2090EBAE80F0013F0010F18BF73
:1001F000FB1A43F0010318472898000048980000B4
:100200000A444FF0000C10F8013B13F0070408BF3C
:1002100010F8014B1D1108BF10F8015B641E05D0DA
:1002200010F8016B641E01F8016BF9D113F0080F8F
:100230001EBF10F8014BAD1C0C1B09D16D1E58BF21
:1002400001F801CBFAD505E014F8016B01F8016B58
:100250006D1EF9D59142D6D37047000000230024CB
:1002600000250026103A28BF78C1FBD8520728BFC6
:1002700030C148BF0B6070471FB508F029FD1FBD96
:1002800010B510BD00F06CF81146FFF7F5FF06F051
:1002900097FC00F08AF803B4FFF7F2FF03BC00F00C
:1002A0008DF800000948804709480047FEE7FEE74F
:1002B000FEE7FEE7FEE7FEE7FEE7FEE7FEE7FEE716
:1002C00004480549054A064B70470000354B0008B5
:1002D000C501000878DC002078E2002078DE0020EC
:1002E00078DE00204FF0000200B513469446964693
:1002F000203922BFA0E80C50A0E80C50B1F1200139
:10030000BFF4F7AF090728BFA0E80C5048BF0CC0E6
:100310005DF804EB890028BF40F8042B08BF704744
:1003200048BF20F8022B11F0804F18BF00F8012BB6
:10033000704770477047704710B500F009F80068C3
:1003400010BD10B5044600F003F8046010BD0000B5
:10035000004870479802002000487047980200202B
:100360007546FFF7F9FFAE4605006946534620F093
:100370000700854618B020B5FFF7A2FFBDE8204072
:100380004FF000064FF000074FF000084FF0000B51
:10039000AC46ACE8C009ACE8C009ACE8C009ACE8C0
:1003A000C00921F007018D46704710B50446AFF330
:1003B00000802046BDE81040FFF76DBF01491820BE
:1003C000ABBEFEE726000200704700002DE9F04FAB
:1003D00081B02DED108B40F2D835C2F2000528789F
:1003E000B0EE408A002848F6D060C0F60000B0EEBB
:1003F000609A006808BFB0EE409A08BFB0EE608A0D
:10040000B0EE490AF0EE480A804749F2B010C0F653
:10041000000040F280140768C2F20004201D04F1BD
:100420000C01B84748F69460C0F6000094ED011A3C
:10043000D4ED021A90E84007B0EE490AF0EE480AFF
:10044000B04748F68060C0F600008468B0EE408A8D
:10045000B0EE609AA04720EE088AA04705F1400060
:1004600005F1600120EE099AB84705F1480005F151
:100470006801B84705F1500005F17001B84740F236
:100480005044C2F2000405F158002146B84795EDEA
:10049000101AD5ED111AB0EE480AF0EE490AB0472D
:1004A00095ED121AD5ED131AB0EE40AAB0EE60BA6F
:1004B000B0EE480AF0EE490AB04795ED141AD5EDB2
:1004C000151AB0EE40CAB0EE60DAB0EE480AF0EEAF
:1004D000490AB04795ED161AD5ED171AB0EE40EA65
:1004E000B0EE60FAB0EE480AF0EE490AB047A868EC
:1004F00040F29C6B0130C0B2C2F2000B40F69C6629
:100500000BEBC001C2F2000681ED00AA81ED01BA39
:1005100006EBC00181ED00CA81ED01DA41F29C6178
:10052000C2F2000101EBC00181ED00EA81ED01FAA8
:1005300041F69C61C2F20001A86001EBC000B0EE80
:10054000408AB0EE609A80ED000A94ED020AD4ED84
:10055000030AB0EE4A1AF0EE4B1A80ED019AC0473A
:1005600094ED051A84ED020A94ED040AC4ED030A21
:10057000F0EE410AB0EE4C1AF0EE4D1AC04794ED81
:10058000071A84ED040A94ED060AC4ED050AF0EE9C
:10059000410AB0EE4E1AF0EE4F1AC04794ED091A18
:1005A00084ED060A94ED080AC4ED070AF0EE410A4C
:1005B000B0EE481AF0EE491AC04795ED011AB7EEB1
:1005C000008A88EE011A84ED080AC4ED090AA868B9
:1005D000BCEEC10A10EE101A401AC7B20BEBC700EE
:1005E00094ED020AD4ED030A90EC021AC84794ED88
:1005F000052A06EBC70084ED020A94ED040A90EC8C
:10060000021AC4ED030AF0EE420AC84741F29C60A8
:10061000C2F2000094ED072A00EBC70084ED040A43
:1006200094ED060A90EC021AC4ED050AF0EE420AB7
:10063000C84741F69C60C2F2000094ED092A00EB25
:10064000C70084ED060A94ED080A90EC021AC4ED86
:10065000070AF0EE420AC84794ED031A84ED080A2F
:1006600094ED020AC4ED090AF0EE410AD04795ED77
:10067000011AD4ED050A21EE001A94ED040A85ED65
:100680000B1AD04795ED011AD4ED070A21EE001A96
:1006900094ED060A85ED0C1AD04795ED011AD4EDBC
:1006A000090A21EE001A94ED080A85ED0D1AD047CB
:1006B00095ED042A95ED011AB6EE083AB4EE432AF8
:1006C00021EE000AF1EE10FA85ED0E0A1DDA95ED25
:1006D0000B3A95ED0C4A95ED0D5A94ED0A6A94ED9E
:1006E0000B7AD4ED0C0AD4ED0D1A36EE033A37EE40
:1006F000044A30EE855A31EE806A84ED0A3A84ED80
:100700000B4A84ED0C5A84ED0D6AB5EE003AB4EE56
:10071000432AF1EE10FA1DDB95ED0B3A95ED0C4AEC
:1007200095ED0D5A94ED0E6A94ED0F7AD4ED100A02
:10073000D4ED111A36EE033A37EE044A30EE855AFC
:1007400031EE800A84ED0E3A84ED0F4A84ED105AA2
:1007500084ED110A95ED030A32EE012A30EE020A09
:10076000B4EE480AF1EE10FA85ED040AC0F22E81CB
:10077000BFEE002A30EE020A85ED040A94ED0A0A63
:100780009FED9B8A94ED0B2A94ED0C3AB5EE400A4E
:10079000F0EE481A94ED0D4A94ED0E5A94ED0F6A5E
:1007A00094ED107AD4ED110AF1EE10FAC8BFF0EE14
:1007B000401AB4EE612AF1EE10FAC8BFF0EE421A08
:1007C000B4EE613AF1EE10FAC8BFF0EE431AB4EE9F
:1007D000614AF1EE10FAB5EE405AB0EE480AC8BFD1
:1007E000F0EE441AF1EE10FAC8BFB0EE450AB4EECE
:1007F000406AF1EE10FAC8BFB0EE460AB4EE407A95
:10080000F1EE10FAC8BFB0EE470AF4EE400AF1EE7E
:1008100010FAC8BFB0EE600A49F28C00B0EEE12ACF
:10082000B0EEC00AC0F6000030EE420A006820EECA
:10083000010A85ED030A804785ED030A95ED0B0A51
:1008400095ED0C1A95ED0D2AB5EE400AB0EE484A2A
:1008500095ED0E3AF1EE10FAC8BFB0EE404AB4EE94
:10086000441A0020F1EE10FAC4BF0120B0EE414A54
:10087000B4EE442AF1EE10FAC4BFB0EE424A0220B0
:10088000B4EE443A40F28011F1EE10FAC8BF0320F2
:10089000C2F20001085C49F2A0110026C0F6000176
:1008A000C4E90A66C4E90C66C4E90E66C4E91066C8
:1008B0008C686870C0F34000A047687800F00100C1
:1008C000A04795ED0B1A95ED0C2A48F6806095ED42
:1008D0000D3AB5EE401AB0EE480AC0F6000095EDAC
:1008E0000E4AF1EE10FAC8BFB0EE410AB4EE402A4B
:1008F0000068F1EE10FAC8BFB0EE420AB4EE403A1A
:10090000F1EE10FAC8BFB0EE430AB4EE404AF1EE81
:1009100010FAC8BFB0EE440A8047D5E9061045F684
:10092000087AC1EB0111C2F2000A0AEB411147F249
:10093000C81401EB0011C2F20004421C95ED0B0A31
:1009400095ED0C1A95ED0D2A95ED0E3A91ED004AB4
:1009500091ED015A91ED026A91ED037A04EB0010DA
:1009600048F68903D0ED000AD0ED011AD0ED022A35
:10097000D0ED033AC8F6880330EE444A31EE455ACA
:1009800032EE466A33EE477AA2FB033734EE204A52
:1009900035EE215A36EE226A37EE237A80ED004A90
:1009A00080ED015A80ED026A80ED037A380900017A
:1009B000A0EB1710A2EB400081ED000A81ED011AB7
:1009C00081ED022A81ED033AE86120B1BDEC108B84
:1009D00001B0BDE8F08F49F2AC08C0F60008D8F8C5
:1009E0002090D8F8107062A02E62C8470CE000BFBB
:1009F000000000004008B847A87800F00100B847A0
:100A00001036B6F5F07F63D0A869B0EE484AC0EB67
:100A1000001006EB4010504490ED000A90ED011AD2
:100A200090ED022AB5EE400A90ED033AF1EE10FA8D
:100A3000C8BFB0EE404AB4EE441A0020F1EE10FAFE
:100A4000C4BF0120B0EE414AB4EE442AF1EE10FAE0
:100A5000C4BF0220B0EE424AB4EE443AA119F1EE0E
:100A600010FAC8BF032091ED000A91ED011A91ED33
:100A7000022AB5EE400AB0EE484A91ED033AF1EE93
:100A800010FAC8BFB0EE404AB4EE441A0021F1EEAD
:100A900010FAC4BF0121B0EE414AB4EE442AF1EE8F
:100AA00010FAC4BF0221B0EE424AB4EE443AF1EE6D
:100AB00010FAC8BF03214140CA07A87002D02A6AB1
:100AC00001322A62890795D5296A0131296291E7A5
:100AD000A96A45F6C862C2F20002286A52F82130BB
:100AE0006F6AC31A3B4442F82100481C00F00F0013
:100AF00000EE103A9FED201AC5E90930B8EE408AA1
:100B00001EA028EE019AC847D8F80040BCEEC90ADA
:100B100010EE100AA0471BA0C8479FED1B0A4CF619
:100B2000CD4628EE000ABCEEC00A10EE100ACCF644
:100B3000CC46A0FB0612D10801EB8101A0EB4100DD
:100B4000A04749F2D400C0F60000016A0FA0884710
:100B5000A8690130A0FB0612D10801EB8101A0EBCE
:100B60004100A861BDEC108B01B0BDE8F08F00BF63
:100B700044617461200000005655D53D20457272D5
:100B80006F7220002E0000005655853F25000000A2
:100B9000B0B540F2041440F28435C2F200044120A2
:100BA000C2F200052060A868216A020E0029AA701E
:100BB00008BFB0BDC0F340708847A878216AC0F371
:100BC00000108847A878216AC0F3C0008847A87839
:100BD000216AC0F380008847A878216AC0F34000EA
:100BE0008847A878216A00F00100BDE8B0400847B6
:100BF00040F24C32C2F200021178537800F001004A
:100C0000013140EA4300CBB2062B5070117018BF7F
:100C1000704760F03F0349F23400C0F60000002145
:100C2000D0F814C040F268201170D9B2C2F20000AE
:100C300053706047B0B549F23401C0F6000140F28C
:100C4000C8144A69C2F200040D6801462046904764
:100C50002046A847642148434AF6AB21CAF6AA2198
:100C6000A0FB011040F25831C2F200014A68B2EB19
:100C7000103F08BFB0BD020B49F2A010C0F6000043
:100C8000C368D0B24A60BDE8B0401847F0B581B043
:100C900049F23407C0F600073D6840F2C810C2F2BE
:100CA0000000A84740F258344AF6AB26C2F20004CE
:100CB000CAF6AA2638B1B96B40F2C810C2F20000D9
:100CC000884720700CE0A068A0FB0612910801EB99
:100CD0004101A0EB41010FA2515C01302170A060E5
:100CE00040F2C810C2F20000A84764214843A0FBAC
:100CF00006106168B1EB103F08D049F2A011C0F6B0
:100D00000001000BC9686060C0B28847207801B05C
:100D1000F0BD00BF0101010000000000B0B549F2C4
:100D20003400C0F6000040F20424456AC2F2000418
:100D300045F21061C1F234212046A8472046002127
:100D40002A46BDE8B0401047B0B549F23400C0F6BD
:100D5000000040F20424456AC2F2000445F2116129
:100D6000C1F234212046A847204600212A46BDE88A
:100D7000B04010472DE9F04140F22030C2F20000AF
:100D800001689FED231A4A1C20EE010A0260BDEEA5
:100D9000C00A10EE103A20EE810AC779BDEEC00AF3
:100DA0006FF31F3310EE106A66F3173340F2984862
:100DB00043EA0763C2F20008402A436048F8213042
:100DC00018BFBDE8F08149F23401C0F6000140F2DD
:100DD000042400264F694A6AC2F2000445F2006109
:100DE0000660C1F234212046904700BF18F8261053
:100DF000204608EB8605B84769782046B847A978A9
:100E00002046B8470136402EF0D1BDE8F08100BF42
:100E100000E0FF4410B540F61800C4F2020050F89C
:100E2000081C090519D44FF0004101604FF08041C2
:100E300001604FF0005140F200340160C2F2000442
:100E4000227840F2240C4CF6CD4EC4F2000C012A5C
:100E5000CCF6CC4E08D162680EE040F20030C2F20F
:100E600000000021017010BD01222270DCF800207A
:100E7000A2FB0E23DA086260DCF80030A3FB0E311F
:100E8000C2EBD10140F6B832914238BF10BD00210B
:100E900021704FF4004149F2D40201604FF48041C7
:100EA000C0F6000201604FF40051126A016005A013
:100EB000904740F2E800C2F200000069BDE810402F
:100EC000004700BF507265737320627574746F6E53
:100ED00000000000F0B581B040F28434C2F200049A
:100EE000E068012843D140F20415C2F20005412018
:100EF00049F2AC012860E07AC0F600010F6A0E6981
:100F000060701CA0B84749F6D510C0F60000B8477D
:100F100060788009B04749F6DC10C0F60000B84799
:100F20006078C0F30110B04749F6E310C0F6000046
:100F3000B8476078C0F38100B04749F6EA10C0F6C0
:100F40000000B847607800F00300B04749F2D400D1
:100F5000C0F60000016A49F6FC10C0F600008847A0
:100F6000A96A21B1607801B0BDE8F040084701B03E
:100F7000F0BD00BF436F6D62696E6174696F6E2072
:100F800044656D6F64756C61746F723A00000000A7
:100F9000F0B581B040F28434C2F20004E068012868
:100FA00043D140F20415C2F20005412049F2AC01E0
:100FB0002860E07AC0F600010F6A0E6920701CA05C
:100FC000B84749F6D510C0F60000B8472078800928
:100FD000B04749F6DC10C0F60000B8472078C0F3EF
:100FE0000110B04749F6E310C0F60000B84720787A
:100FF000C0F38100B04749F6EA10C0F60000B847D8
:10100000207800F00300B04749F2D400C0F6000099
:10101000016A49F6FC10C0F600008847696A21B1F0
:10102000207801B0BDE8F040084701B0F0BD00BF36
:10103000436F6D62696E6174696F6E204D6F647588
:101040006C61746F723A000040F240128109C2F282
:1010500000021170C0F301115170C0F3810100F062
:1010600003009170D070704740F280128109C2F283
:1010700000021170C0F301115170C0F3810100F042
:1010800003009170D070704748F6DC71C0F6000123
:10109000896A08477047000070B549F23401C0F60C
:1010A000000140F22C254E6AC2F2000545F20661AD
:1010B0000446C1F234212846B04728462146B047AD
:1010C00049F2AC00C0F60000016A05A0884749F269
:1010D000D400C0F6000001682046BDE87040084713
:1010E0004672657175656E63792044444320000043
:1010F00048F6DC71C0F600018968084740F22831E3
:10110000C2F20001886070477047000010B540F2DD
:10111000A030C2F200004068042818BF10BD49F298
:10112000D40140F23404C0F60001C2F200042020D1
:10113000096A206003A08847E06910B1BDE810404B
:10114000004710BD476574206672657175656E63F2
:101150007920444443000000B0B540F2A034C2F20C
:1011600000046068042818BFB0BD49F2AC0140F229
:101170003405C0F60001C2F200052020096A28608B
:1011800007A0884749F2D400C0F600000168206833
:101190008847A96919B12068BDE8B0400847B0BDCB
:1011A000536574206672657175656E637920444479
:1011B0004320000070B549F23401C0F6000140F24E
:1011C0002C254E6AC2F2000545F202610446C1F2C6
:1011D00034212846B04728462146B04749F2AC00A2
:1011E000C0F60000016A05A0884749F2D400C0F6A5
:1011F000000001682046BDE8704008474D6F6465F7
:10120000204444432000000048F6DC71C0F6000191
:101210000968084740F22831C2F2000108607047AF
:101220007047000010B540F2A030C2F200004068E4
:10123000042818BF10BD49F2D40140F23404C0F6AE
:101240000001C2F200042020096A206003A0884740
:10125000E06810B1BDE81040004710BD476574203C
:101260006D6F64652044444300000000B0B540F257
:10127000A034C2F200046068042818BFB0BD49F26F
:10128000AC0140F23405C0F60001C2F20005202096
:10129000096A286007A0884749F2D400C0F6000018
:1012A000016820688847A96819B12068BDE8B04086
:1012B0000847B0BD536574206D6F64652044444396
:1012C0002000000010B540F2A030C2F200004068DB
:1012D000042818BF10BD49F2D40140F23404C0F60E
:1012E0000001C2F200042020096A206003A08847A0
:1012F000206A10B1BDE81040004710BD526573650B
:1013000074204444430000002DE9F04140F21830BD
:10131000C2F2000001689FED1F1A4A1C20EE010A6C
:101320000260BDEEC00A10EE103A20EE810A838002
:10133000BDEEC00A10EE103AC38040F29A584368DE
:10134000C2F20008402A48F8213018BFBDE8F081F9
:1013500049F23401C0F6000140F22C240026D1E904
:101360000872C2F2000445F200610660C1F2342145
:101370002046904738F92610204608EB8605B847E6
:10138000B5F902102046B8470136402EF2D1BDE82B
:10139000F08100BF00FEFF4648F6DC70C0F600009A
:1013A000C068004748F6E060C0F6000000690047EA
:1013B00070B549F23401C0F6000140F22C254E6AA6
:1013C000C2F2000545F204610446C1F23421284608
:1013D000B04728462146B04749F2AC00C0F60000AD
:1013E000016A05A0884749F2D400C0F600000168F0
:1013F0002046BDE87040084757696474682044443B
:101400004320000048F6DC71C0F600014968084737
:1014100040F22831C2F20001486070477047000076
:1014200010B540F2A030C2F200004068042818BF96
:1014300010BD49F2D40140F23404C0F60001C2F2FA
:1014400000042020096A206003A08847606910B169
:10145000BDE81040004710BD47657420776964748B
:101460006820444443000000B0B540F2A034C2F20A
:1014700000046068042818BFB0BD49F2AC0140F216
:101480003405C0F60001C2F200052020096A286078
:1014900007A0884749F2D400C0F600000168206820
:1014A0008847296919B12068BDE8B0400847B0BD38
:1014B00053657420776964746820444443200000B5
:1014C00040F2E400C2F200000068704740F2E4011C
:1014D000C2F20001032804D3C969002908BF70477C
:1014E0000847086070470000B0B540F28434C2F28B
:1014F0000004A068B0F1404F28D340F20415C2F2B6
:10150000000541212960296A020E0029A27008BF46
:10151000B0BDC0F340708847A078296AC0F30010BE
:101520008847A078296AC0F3C0008847A078296A54
:10153000C0F380008847A078296AC0F3400088473C
:10154000A078296A00F001008847A0680021B1EB6B
:10155000907F1BD140F20412000EC2F20002E16043
:1015600024211060C4F2000109684CF6CD42CCF68B
:10157000CC42A1FB021249F21451C0F6000151F80D
:101580002000D1082161BDE8B0400047B0BD000097
:1015900043F63000C4F20200016841F4001101601A
:1015A000016841F48001016044F20441C4F2000189
:1015B00046F2580001F58062C4F2020082600268BF
:1015C00042F480620260026842F0400202600268F7
:1015D00042F0006202600165826C01F54C4142F408
:1015E00080628264826C42F040028264826C42F0CB
:1015F00000628264C0F86814D0F8601441F480611D
:10160000C0F86014D0F8601441F04001C0F86014D4
:10161000D0F8601441F00061C0F860147047000019
:1016200010B540F2A030C2F200004068042818BF94
:1016300010BD49F2D40140F23404C0F60001C2F2F8
:1016400000042020096A206003A08847606C10B164
:10165000BDE81040004710BD436C656172206275A3
:1016600066666572204455430000000010B540F2E4
:10167000A030C2F200004068042818BF10BD49F233
:10168000D40140F23404C0F60001C2F2000420206C
:10169000096A206003A08847206C10B1BDE81040A3
:1016A000004710BD50657263656E74206275666692
:1016B0006572204455430000B0B540F2A035C2F237
:1016C000000569684AF6AB20CAF6AA204843B0F183
:1016D000553F88BFB0BD40F23404C2F20004A06C94
:1016E00098B129689FED0B1A0A1500EE102AB8EE82
:1016F000C00A41F30B2102EE101AB8EEC22A20EE06
:10170000010A62EE010A80476968C02904BF2020EF
:101710002060B0BD0000003A48F6DC71C0F6000160
:10172000896A08477047000070B549F23401C0F675
:10173000000140F22C254E6AC2F2000545F20E610E
:101740000446C1F234212846B04728462146B04716
:1017500049F2AC00C0F60000016A05A0884749F2D2
:10176000D400C0F6000001682046BDE8704008477C
:101770004672657175656E6379204455432000009B
:1017800048F6DC71C0F600018969084740F228314B
:10179000C2F20001486170477047000010B540F286
:1017A000A030C2F200004068042818BF10BD49F202
:1017B000D40140F23404C0F60001C2F2000420203B
:1017C000096A206003A08847A06B10B1BDE81040F3
:1017D000004710BD476574206672657175656E635C
:1017E0007920445543000000B0B540F2A034C2F265
:1017F00000046068042818BFB0BD49F2AC0140F293
:101800003405C0F60001C2F200052020096A2860F4
:1018100007A0884749F2D400C0F60000016820689C
:101820008847696B19B12068BDE8B0400847B0BD72
:10183000536574206672657175656E6379204455D1
:101840004320000070B549F23401C0F6000140F2B7
:101850002C254E6AC2F2000545F20A610446C1F227
:1018600034212846B04728462146B04749F2AC000B
:10187000C0F60000016A05A0884749F2D400C0F60E
:10188000000001682046BDE8704008474D6F646560
:10189000204455432000000048F6DC71C0F60001EA
:1018A0000969084740F22831C2F20001C860704758
:1018B0007047000010B540F2A030C2F2000040684E
:1018C000042818BF10BD49F2D40140F23404C0F618
:1018D0000001C2F200042020096A206003A08847AA
:1018E000A06A10B1BDE81040004710BD47657420E4
:1018F0006D6F64652044554300000000B0B540F2B0
:10190000A034C2F200046068042818BFB0BD49F2D8
:10191000AC0140F23405C0F60001C2F200052020FF
:10192000096A286007A0884749F2D400C0F6000081
:10193000016820688847696A19B12068BDE8B0402D
:101940000847B0BD536574206D6F646520445543EE
:101950002000000070B549F23401C0F6000140F2E9
:101960002C254E6AC2F2000545F211610446C1F20F
:1019700034212846B047284621463246BDE870400B
:101980001047000048F6DC71C0F60001C96908473D
:1019900040F22831C2F200018861704740F2A01184
:1019A000C2F200014968084710B540F2A030C2F207
:1019B00000004068042818BF10BD49F2D40140F26D
:1019C0003404C0F60001C2F200042020096A20603D
:1019D00003A08847E06B10B1BDE81040004710BD80
:1019E00052657365742044554300000070B549F298
:1019F0003401C0F6000140F22C254E6AC2F2000507
:101A000045F20C610446C1F234212846B04728460D
:101A10002146B04749F2AC00C0F60000016A05A0BB
:101A2000884749F2D400C0F6000001682046BDE8AE
:101A3000704008475769647468204455432000008B
:101A400048F6DC71C0F600014969084740F22831C8
:101A5000C2F20001086170477047000010B540F203
:101A6000A030C2F200004068042818BF10BD49F23F
:101A7000D40140F23404C0F60001C2F20004202078
:101A8000096A206003A08847206B10B1BDE81040B0
:101A9000004710BD47657420776964746820445519
:101AA00043000000B0B540F2A034C2F20004606808
:101AB000042818BFB0BD49F2AC0140F23405C0F6AD
:101AC0000001C2F200052020096A286007A08847AB
:101AD00049F2D400C0F60000016820688847E96A2E
:101AE00019B12068BDE8B0400847B0BD5365742007
:101AF00077696474682044554320000070B549F24A
:101B00003401C0F6000140F22C254E6AC2F20005F5
:101B100045F21F610446C1F234212846B0472846E9
:101B20002146B04749F2AC00C0F60000016A05A0AA
:101B3000884749F2D400C0F6000001682046BDE89D
:101B4000704008474552524F5220000010B540F2F5
:101B5000BC34C2F200046068042818BF10BD49F20A
:101B6000AC00C0F60000016A0AA0884749F2D40020
:101B7000C0F6000001682068884740F29000C2F279
:101B8000000081692022026019B12068BDE8104080
:101B9000084710BD4552524F523A204455432072D7
:101BA000657475726E6564206572726F72200000D4
:101BB00010B540F2C834C2F200046068042818BFAF
:101BC00010BD49F2AC00C0F60000016A0AA08847C7
:101BD00049F2D400C0F6000001682068884740F24E
:101BE000BC00C2F2000081692022026019B12068A5
:101BF000BDE81040084710BD4552524F523A2044AC
:101C000044432072657475726E6564206572726FEC
:101C100072200000B0B549F2B410C0F60000D0F850
:101C2000B000804742F29C65C2F2000504460028DD
:101C3000287818BF0124A04214D049F2AC00C0F6A5
:101C40000000016A08A02C70884749F2D400C0F651
:101C50000000416A287848F66C52C0F6000252F83B
:101C6000200088472046B0BD45746865726E657473
:101C7000200000002DE9F04F85B00646000E0392CB
:101C80000190080E029049F23400C0F6000040F2C4
:101C90002C258B46446A180EC2F2000545F21661E7
:101CA0000490C1F2342128469A461746A047284698
:101CB0003146A04728465946A04728463946A047FE
:101CC00028465146A04749F2AC00C0F60000D0F8C3
:101CD0002080D0F8109025A0C0470198C84749F649
:101CE000DE05C0F600052846C047C6F30740C847D2
:101CF0002846C047C6F30720C8472846C04749F2D0
:101D0000D400C0F6000007690468F0B2B84718A014
:101D1000C0470298C8472846C047CBF30740C8478A
:101D20002846C047CBF30720C8472846C0475FFA7C
:101D30008BF0B84710A0C0470398A04710A0C04739
:101D40000498C8472846C047CAF30740C8472846F2
:101D5000C047CAF30720C8472846C0475FFA8AF041
:101D6000394605B0BDE8F04F084700BF4970200074
:101D70004D61736B20000000506F727420000000F2
:101D80004761746557617920000000002DE9F04F2C
:101D900085B005464FEA106A49F23400C0F60000EB
:101DA00040F268284669C2F200080C460F0E404611
:101DB00051460297B047C5F3074940464946B047E8
:101DC000C5F3072B40465946B047E9B2404600915B
:101DD000B04740463946B047C4F3074140460391F7
:101DE000B047C4F3072140460491B047E1B24046F2
:101DF0000191B04740460021B04740465021B047CE
:101E000049F2AC00C0F60000046A066919A0A047B8
:101E10005046B04749F6DE05C0F600052846A04703
:101E20004846B0472846A0475846B0472846A047EE
:101E300049F2D400C0F60000D0F808800769009885
:101E4000B8470DA0A0470298B0472846A04703987E
:101E5000B0472846A0470498B0472846A0470198B5
:101E6000B84707A0A0475020414605B0BDE8F04F55
:101E7000084700BF497020004D61736B20000000CF
:101E8000506F72742000000010B540F2A030C2F212
:101E900000004068042818BF10BD49F2D40140F288
:101EA0003404C0F60001C2F200042020096A206058
:101EB00003A08847206D10B1BDE81040004710BD59
:101EC00045746865726E6574206765740000000073
:101ED00070B549F2B411C0F600014D69496A044673
:101EE000884742F2A066C2F200063060A847316817
:101EF0007060C4E9001070BD10B549F2D40140F221
:101F00000414C0F60001C2F200044120096A2060F6
:101F100004A08847E069002808BF10BDBDE8104054
:101F2000004700BF45746865726E6574206765740C
:101F30000000000010B540F2A030C2F2000040687E
:101F4000042818BF10BD49F2D40140F23404C0F691
:101F50000001C2F200042020096A206003A0884723
:101F6000606D10B1BDE81040004710BD4574686554
:101F7000726E657420726573657400000120CCF286
:101F8000A8006FF0FF0100F03DB80000B0B540F2CE
:101F9000A034C2F20004606804384FEAB00003289D
:101FA00005D8DFE800F00205080B2068E060B0BD4E
:101FB00020682061B0BD20686061B0BD206849F232
:101FC000D40140F23405C0F60001A061C2F2000560
:101FD0002020096A286007A08847D5F84CC0BCF1CA
:101FE000000F08BFB0BD04F10C030FCBBDE8B0403B
:101FF000604700BF45746865726E657420736574D0
:10200000000000002DE9F04F81B02DED028B84B06F
:102010008346000E40F218440290C4F202044FF4CA
:102020008000206048F6D460C0F60000D0F804803C
:10203000B7EE008A080EB0EE480A89460390C04702
:102040004020B0EE480A2060C04749F2B415C0F6FF
:102050000005286929680090A869D5F820A001909A
:1020600080208847B2EE040AC04748F64070C0F6A8
:102070000000D0E902610468076988470720B84773
:1020800000205946A04704204946A047B04758467B
:10209000D04700994846884749F26700019AC7F639
:1020A000780041F234219047D5F8B8400120012151
:1020B000A047D5F8D47001205121B847D5F80C615C
:1020C00001200221B047D5F8145101200221A84770
:1020D00005200121A04705205021B84705200221F5
:1020E000B04705200221A8471D200121A0471D203F
:1020F0005721B8471D200221B0471D200221A847C3
:1021000049F2AC00C0F60000056A04691AA0A847AD
:102110000298A04749F6DE07C0F600073846A847F0
:10212000CBF30740A0473846A847CBF30720A0478A
:102130003846A84749F2D400C0F6000006695FFAA5
:102140008BF0B0470DA0A8470398A0473846A84792
:10215000C9F30740A0473846A847C9F30720A0475E
:102160003846A8475FFA89F0314604B0BDEC028BCF
:1021700001B0BDE8F04F0847497020004D61736B16
:1021800020000000B0B540F28434C2F20004E068E0
:102190000A2806D0082821D0042821D1A06860612F
:1021A000B0BD608949F2D40140F20415C0F60001C7
:1021B000A080C2F200054120096A286009A0884772
:1021C000D4E90501AB6900BA09BA002B6061A161CD
:1021D00008BFB0BDA288BDE8B0401847A068A061A4
:1021E000B0BD00BF45746865726E65742073657418
:1021F0000000000043F60040C4F20200016841F014
:1022000005010160016841F480710160016841F4D9
:1022100000710160016841F4806101607047000055
:1022200040F2BC30C2F200004168042918BF704778
:1022300040F29002C2F2000211692023136009B13A
:10224000006808477047000040F2C830C2F2000042
:102250004168042918BF704740F2BC02C2F2000274
:1022600011692023136009B1006808477047000016
:10227000B0B540F28430C2F20000C168042918BF32
:10228000B0BD40F20415C2F200054121296049F2B7
:10229000AC018068C0F60001096A04BA07A088474B
:1022A00049F2D400C0F60000016820468847296B37
:1022B00019B12046BDE8B0400847B0BD467265710F
:1022C00075656E637920444443200000B0B540F248
:1022D0008430C2F20000C168042918BFB0BD40F2CA
:1022E0000415C2F200054121296049F2AC01806861
:1022F000C0F60001096A04BA07A0884749F2D40071
:10230000C0F60000016820468847E96A19B12046F6
:10231000BDE8B0400847B0BD4672657175656E6333
:102320007920445543200000B0B549F23400C0F68E
:10233000000040F20424456AC2F2000445F20E6136
:10234000C1F234212046A847204600212A46BDE894
:10235000B0401047B0B549F23400C0F6000040F27A
:10236000DC14456AC2F2000445F20661C1F2342170
:102370002046A847204600212A46BDE8B040104725
:1023800070B549F23401C0F6000140F204254E6AEE
:10239000C2F2000545F20D610446C1F2342128461F
:1023A000B047284621463246BDE87040104700003D
:1023B00070B549F23401C0F6000140F2DC154E6AF6
:1023C000C2F2000545F205610446C1F234212846F7
:1023D000B047284621463246BDE87040104700000D
:1023E00040F26430C2F2000090ED020A20EE001AC2
:1023F00021EE011A21EE000A20EE000A70470000CB
:1024000070B540F27035C2F2000595ED010A95ED08
:10241000021A40F2401431EE000AB7EE001AB4EE90
:10242000410AF1EE10FAC2F2000485ED020A01DA67
:10243000E8681BE048F68C60C0F60000BFEE001AAA
:10244000466830EE010A85ED020AB047297800F0AF
:10245000010001F0FD0141EA40002870B0472978F1
:1024600060F30001C8B2205C2970E86049F2B01145
:10247000C0F600010D6804EBC00000F12001201D32
:10248000A84704F10C0004F11401A84748F6946031
:10249000C0F60000211D006891EC040ABDE8704000
:1024A0000047000043F63000C4F20200016841F02A
:1024B00001010160016841F002010160016841F021
:1024C00004010160016841F0080101600020C4F2CC
:1024D000020001680160416821F4807141608168F7
:1024E00041F440318160C16821F44031C16001682C
:1024F00041F40021016041684160816841F440215C
:102500008160C16841F40021C160416A41F07001FD
:102510004162016841F400110160416841608168D5
:1025200041F440118160C16841F40011C160416A09
:1025300041F4E0614162016841F4000101604168D9
:1025400021F400614160816841F440018160416A89
:1025500041F4E0414162016841F00071016041686D
:1025600021F480514160816841F040718160416A8D
:1025700041F4E0214162016841F0200101604168BD
:102580004160816841F030018160C16841F0200103
:10259000C160016A41F4E0610162016841F08001BB
:1025A000016041684160816841F0C0018160C1689B
:1025B00041F08001C160016A41F4E0410162D0F85C
:1025C000001441F40011C0F8001440F20C41C4F2B0
:1025D000020151F8082C41F8082C51F8042C42F45F
:1025E000401241F8042C0A6842F400120A608A6919
:1025F00042F4E0628A61D1F8F42342F40062C1F847
:10260000F423D1F8F823C1F8F82340F60802C4F205
:102610000202136843F440631360536843F4006399
:102620005360936943F4E0039361D0F8003423F4DA
:102630004063C0F80034D0F8003443F40063C0F8BD
:10264000003451F8083C23F0200341F8083C51F8CD
:10265000043C43F4406341F8043C0B6823F44063BA
:102660000B600B6843F400630B604B6923F4700349
:102670004B614B6943F4A0034B61D0F8003443F441
:102680000073C0F8003451F8083C23F0100341F8FF
:10269000083C51F8043C43F4407341F8043C0B6897
:1026A00023F440730B600B6843F400730B604B69B9
:1026B00023F470234B614B6943F4A0234B61D0F8A2
:1026C000003423F0C003C0F80034D0F8003443F0E5
:1026D0008003C0F8003451F8083C23F0080341F8A7
:1026E000083C51F8043C23F0C00341F8043C51F885
:1026F000043C43F0C00341F8043C0B6823F0C003E2
:102700000B600B6843F080030B604B6923F470434C
:102710004B614B6943F4A0434B61D0F8003443F460
:102720008053C0F8003451F8080C20F0400041F804
:10273000080C51F8040C40F4405041F8040C0868AF
:1027400040F480500860D2F8F80320F03000C2F85E
:10275000F803D2F8F80340F01000C2F8F803D2F8FA
:10276000FC0320F00400C2F8FC03D2F8000420F0BF
:102770003000C2F80004D2F8000440F03000C2F883
:10278000000440F60C40C4F20200036823F030035A
:102790000360036843F010030360D1F8F403C1F849
:1027A000F403D1F8F80320F40060C1F8F8031068CE
:1027B00040F440001060506820F440005060D1F8B0
:1027C000F40340F08060C1F8F403D1F8F803C1F8D5
:1027D000F803106840F040601060506840F00060FE
:1027E0005060D1F8F40340F08050C1F8F403D1F800
:1027F000F803C1F8F803106840F0405010605068CA
:1028000040F000505060D1F8F40340F08040C1F82F
:10281000F403D1F8F803C1F8F803106840F0404021
:102820001060506840F0004050604FF4004010616C
:102830004FF4804010614FF4005010617047000069
:1028400010B540F2A030C2F200004068042818BF62
:1028500010BD49F2D40140F23404C0F60001C2F2C6
:1028600000042020096A206003A08847A06D10B1F1
:10287000BDE81040004710BD496E697400000000BB
:1028800070B5044649F23400C0F6000040F22C2531
:10289000C2F20005426A45F21E61466BC1F2342164
:1028A0002846904728462146B04749F2AC00C0F67A
:1028B0000000016A05A0884749F2D400C0F6000074
:1028C000016A2046BDE87040084700BF496E697440
:1028D000200000002DE9F04F83B049F2D400C0F68B
:1028E0000000016A2AA0884748F66070C0F6000020
:1028F000426C40F23801C2F200010A62C26E00F17D
:1029000058080192026FD0E912A3D0E914CE98E8DA
:10291000F001009201F13402C1E909A3C1E90BCE33
:1029200082E8F001D0E90A76D0E90C54D0E90E2310
:10293000C1E90176C1E903544A61026CD0E91DB9CD
:10294000C1E90632019ACDF808908A64009AD0E96C
:1029500008CEC1E9132B029A00F108074A6540F23C
:102960009401D0E90082C069C2F20001F8CFC1E948
:1029700001670C3181E8015040F2C000C2F2000052
:10298000C0E901820C3038C003B0BDE8F08F00BF51
:10299000486F72697A6F6E20696E6974000000007A
:1029A00010B549F2D40140F20414C0F60001C2F29D
:1029B00000044120096A206004A08847A06800281C
:1029C00008BF10BDBDE81040004700BF496E6974E4
:1029D000000000002DE9F04381B049F2D400C0F6B8
:1029E0000000016A36A0884749F24410C0F6000092
:1029F00040F2081790E80E5000F11406C2F20007EA
:102A000070CE07F1040888E80E5007F1180170C174
:102A100000F120064ECE00F1300E07F1240400F143
:102A200040079EE820514EC4CECFD0E9154940F270
:102A30009400C2F200004560C0F80880C0F80CC0E5
:102A4000C0F810E0416140F2C000C2F20000011D78
:102A5000CCC1446149F29000C0F6000040F2A014DD
:102A60000169C2F200048569E160C847A84748F6D9
:102A7000E060C0F60000C0698047A068804748F663
:102A80000C70C0F600000168846805690120884761
:102A90000220A0474FF4FA30A84748F6A860C0F6D5
:102AA0000000016884680569012088470220A0476A
:102AB0004FF4FA30294601B0BDE8F043084700BFA3
:102AC00053746F726F6E6120696E6974000000004C
:102AD00080B549F23400C0F60000426940F2682037
:102AE000C2F200008021904749F2AC00C0F600001D
:102AF000016A05A0884749F2D400C0F60000416889
:102B00008020BDE880400847496E697420000000BD
:102B100040F29810C2F2000070470000B0B540F2D9
:102B20008430C2F20000C168012921D1806840F2DE
:102B300004150022C2F200054121B2EB506F29605A
:102B400017D149F2AC01C0F60001096A040E15A0C4
:102B5000884749F2D400C0F6000001692046884742
:102B6000696B002908BFB0BD2046BDE8B0400847EA
:102B7000B0BD49F2D400C0F60000016A01A0BDE872
:102B8000B04008474572726F723A20496E7665729E
:102B900073696F6E206973206E6F7420636F727239
:102BA00065637400496E76657273696F6E20697330
:102BB0002000000040F2D831C2F2000108707047D6
:102BC0004EF22540CEF2000010210170417081705C
:102BD0004EF20410CEF2000020210160402101607D
:102BE000802101607047000040F2A030C2F2000076
:102BF00001684AF2B022C0F29102B2EB511F18BF35
:102C0000704740F2340201F01F01C2F2000211606D
:102C1000002141602421C4F2000109684CF6CD4234
:102C2000CCF6CC42A1FB0212D108816070470000B3
:102C300040F2BC30C2F2000001684AF2B022C0F299
:102C40009102B2EB511F18BF704740F2900201F0A1
:102C50001F01C2F200021160002141602421C4F270
:102C6000000109684CF6CD42CCF6CC42A1FB021221
:102C7000D10881607047000040F2C830C2F2000005
:102C800001684AF2B022C0F29102B2EB511F18BFA4
:102C9000704740F2BC0201F01F01C2F20002116055
:102CA000002141602421C4F2000109684CF6CD42A4
:102CB000CCF6CC42A1FB0212D10881607047000023
:102CC000B0B5B5EE400AF1EE10FA40F3F4809FED96
:102CD0007A1A20EE010ABCEEC00A10EE100AA0F12A
:102CE000110140F20110A1FB00028B1A02EB53020A
:102CF0004EF21800D30DCEF200001B06A3EBD25308
:102D00000268CB1A0468141B24F07F449C4211D241
:102D10000568551B25F07F459D420BD20568551B64
:102D200025F07F459D4205D20568551B25F07F455E
:102D30009D42E7D30022B2EB116F00F0BC804FEA56
:102D4000116E4FF62871C0F2FF011EF00304AEF1C0
:102D5000010C34D0026801F1D00300BF0568551B97
:102D60001D408D420ED20568551B1D408D4209D273
:102D70000568551B1D408D4204D20568551B1D403A
:102D80008D42EBD3012C624632D002680568551B98
:102D90001D408D420ED20568551B1D408D4209D243
:102DA0000568551B1D408D4204D20568551B1D400A
:102DB0008D42EBD3022C04D1AEF1020218E0724630
:102DC00016E002680468141B1C408C420ED2046892
:102DD000141B1C408C4209D20468141B1C408C42FA
:102DE00004D20468141B1C408C42EBD3AEF10302E6
:102DF000BCF1030F38BFB0BD01F1D00302E000BF4A
:102E0000043A58D0046800BF0568651B1D408D4218
:102E10000ED20568651B1D408D4209D20568651BF1
:102E20001D408D4204D20568651B1D408D42EBD3C9
:102E3000046800BF0568651B1D408D420ED2056801
:102E4000651B1D408D4209D20568651B1D408D42E2
:102E500004D20568651B1D408D42EBD3046800BF9A
:102E60000568651B1D408D420ED20568651B1D401F
:102E70008D4209D20568651B1D408D4204D205684C
:102E8000651B1D408D42EBD3046800BF0568651BC0
:102E90001D408D42B4D20568651B1D408D42AFD2E6
:102EA0000568651B1D408D42AAD20568651B1D4043
:102EB0008D42EBD3A4E7B0BDCDCC4C43B0B59FED74
:102EC0007F1A20EE011AB5EE401AF1EE10FA40F327
:102ED000F4809FED7B1A20EE010ABCEEC00A10EED2
:102EE000100AA0F1110140F20110A1FB00028B1A9F
:102EF00002EB53024EF21800D30DCEF200001B0677
:102F0000A3EBD2530268CB1A0468141B24F07F444D
:102F10009C4211D20568551B25F07F459D420BD27E
:102F20000568551B25F07F459D4205D20568551B58
:102F300025F07F459D42E7D30022B2EB116F00F0F0
:102F4000BC804FEA116E4FF62871C0F2FF011EF0EF
:102F50000304AEF1010C34D0026801F1D00300BFCC
:102F60000568551B1D408D420ED20568551B1D403E
:102F70008D4209D20568551B1D408D4204D205685B
:102F8000551B1D408D42EBD3012C624632D00268A6
:102F90000568551B1D408D420ED20568551B1D400E
:102FA0008D4209D20568551B1D408D4204D205682B
:102FB000551B1D408D42EBD3022C04D1AEF1020211
:102FC00018E0724616E002680468141B1C408C422C
:102FD0000ED20468141B1C408C4209D20468141BD6
:102FE0001C408C4204D20468141B1C408C42EBD35E
:102FF000AEF10302BCF1030F38BFB0BD01F1D00345
:1030000002E000BF043A58D0046800BF0568651BA1
:103010001D408D420ED20568651B1D408D4209D2B0
:103020000568651B1D408D4204D20568651B1D4067
:103030008D42EBD3046800BF0568651B1D408D42BF
:103040000ED20568651B1D408D4209D20568651BBF
:103050001D408D4204D20568651B1D408D42EBD397
:10306000046800BF0568651B1D408D420ED20568CF
:10307000651B1D408D4209D20568651B1D408D42B0
:1030800004D20568651B1D408D42EBD3046800BF68
:103090000568651B1D408D42B4D20568651B1D4047
:1030A0008D42AFD20568651B1D408D42AAD20568CE
:1030B000651B1D408D42EBD3A4E7B0BD00007A44F0
:1030C0000000484840F2BC30C2F2000041680429C8
:1030D00018BF704740F29002C2F2000291682023AC
:1030E000136009B1006808477047000040F2C8301B
:1030F000C2F200004168042918BF704740F2BC02C8
:10310000C2F2000291682023136009B100680847E9
:1031100070470000B0B540F28434C2F20004E068A9
:10312000012818BFB0BD49F2AC0140F20415C0F649
:103130000001C2F200054120096A286007A0884703
:1031400049F2D400C0F600000168E07A8847E968D7
:1031500019B1E07ABDE8B0400847B0BD4D6F646575
:1031600020000000B0B549F23400C0F6000040F283
:103170000424456AC2F2000445F20A61C1F2342116
:103180002046A847204600212A46BDE8B040104707
:10319000B0B549F23400C0F6000040F2DC14456AD4
:1031A000C2F2000445F20261C1F234212046A84770
:1031B000204600212A46BDE8B040104770B549F2CC
:1031C0003401C0F6000140F204254E6AC2F2000547
:1031D00045F209610446C1F234212846B047284629
:1031E00021463246BDE870401047000070B549F2F4
:1031F0003401C0F6000140F2DC154E6AC2F200054F
:1032000045F201610446C1F234212846B047284600
:1032100021463246BDE8704010470000B0B540F28C
:10322000C835C2F200056968880718BFB0BD40F212
:10323000BC04C2F20004606990B129689FED0B1ACA
:103240000A1409B200EE102A02EE101AB8EEC00AF3
:10325000B8EEC22A20EE010A62EE010A80476968D0
:10326000B1F5807F04BF20202060B0BD0000003891
:103270002DE9F04381B049F23406C0F6000631680A
:103280000446884740F2340840F2A037C2F20008F2
:10329000C2F20007D0B1B66B49F288390546C0F6D4
:1032A000000900BF3868013D000A38602046B04779
:1032B000D7E9001241EA0060511CD8F800203860BC
:1032C00059F8220079608047002DEBD1D8F8000032
:1032D000202821D02420C4F2000000684CF6CD4103
:1032E000CCF6CC41A0FB0101B868C0EBD100B0F531
:1032F0007A7F11D349F2AC00C0F60000016A08A041
:10330000884749F2D400C0F600000168D8F80000F0
:1033100088472020C8F8000001B0BDE8F08300BF56
:103320004552524F523A2074696D656F757420632F
:103330006F6C6C656374696E6720636F6D6D616E31
:10334000642000002DE9F04381B049F23406C0F654
:10335000000631680446884740F2900840F2BC37C6
:10336000C2F20008C2F20007D0B1B66B49F20C49B4
:103370000546C0F6000900BF3868013D000A386004
:103380002046B047D7E9001241EA0060511CD8F846
:103390000020386059F8220079608047002DEBD179
:1033A000D8F80000202820D02420C4F200000068B3
:1033B0004CF6CD41CCF6CC41A0FB0101B868C0EB86
:1033C000D100642811D349F2AC00C0F60000016AB4
:1033D00007A0884749F2D400C0F600000168D8F879
:1033E000000088472020C8F8000001B0BDE8F08345
:1033F0004552524F523A204455432074696D656FCF
:10340000757420636F6C6C656374696E6720636F9D
:103410006D6D616E642000002DE9F04381B049F2CA
:103420003406C0F6000631680446884740F2BC08FE
:1034300040F2C837C2F20008C2F20007D0B1B66B42
:1034400049F290490546C0F6000900BF3868013DC1
:10345000000A38602046B047D7E9001241EA006010
:10346000511CD8F80020386059F822007960804754
:10347000002DEBD1D8F80000202820D02420C4F261
:10348000000000684CF6CD41CCF6CC41A0FB010118
:10349000B868C0EBD100642811D349F2AC00C0F683
:1034A0000000016A07A0884749F2D400C0F6000076
:1034B0000168D8F8000088472020C8F8000001B053
:1034C000BDE8F0834552524F523A204444432074A1
:1034D000696D656F757420636F6C6C656374696E7C
:1034E0006720636F6D6D616E642000002DE9F0430D
:1034F00081B049F23406C0F60006316804468847B8
:1035000040F2041840F28437C2F20008C2F2000709
:10351000D0B1B66B49F214590546C0F6000900BF98
:10352000B868013D000AB8602046B047D7E90212EA
:1035300041EA0060511CD8F80020B86059F8220018
:10354000F9608047002DEBD1D8F80000412819D050
:103550002420C4F2000000684CF6CD41CCF6CC41EA
:10356000A0FB01013869C0EBD100B0F57A7F09D327
:1035700049F2D400C0F60000016A04A08847412047
:10358000C8F8000001B0BDE8F08300BF4552524FBB
:10359000523A2074696D656F757420636F6C6C6549
:1035A0006374696E6720636F6D6D616E6400000007
:1035B00048F68C61C0F600010968084748F6E061EA
:1035C000C0F600014969084749F29001C0F60001C0
:1035D0004969084748F6A860C0F6000040690047FE
:1035E00048F6A861C0F600010969084748F6A860D6
:1035F000C0F600004068004748F6A861C0F6000128
:103600000968084748F6A860C0F60000406A00470D
:1036100048F6A860C0F60000C068004748F6A861F8
:10362000C0F600018968084748F60C70C0F6000033
:10363000806A004748F60C70C0F60000406A0047F8
:1036400048F60C70C0F60000C06A004748F60C70DF
:10365000C0F600004069004748F60C71C0F6000152
:103660000969084748F60C70C0F60000406800473A
:1036700048F60C71C0F600010968084748F60C705E
:10368000C0F60000006B004748F60C70C0F6000062
:10369000C068004748F60C71C0F600018968084709
:1036A00080B582B040F2E800C2F20000C16868460E
:1036B000884748F6DC70C0F60000D0F820C0DDE98D
:1036C00000010023CCF2A8035122E04702B080BDE4
:1036D00080B582B040F29850C2F20000007878B90C
:1036E00040F2E800C2F20000C1686846884749F22B
:1036F000A010C0F600004368DDE9000150229847A1
:1037000002B080BD40F2E800C2F20000006900474C
:1037100040F2E802C2F200029268104710B549F286
:103720003811C0F6000189680446884740F2E80075
:10373000C2F20000826820466FF0FF01BDE8104031
:103740001047000048F6A861C0F600010969084763
:1037500048F60C71C0F600010969084710B548F633
:10376000DC70C0F60000446A40F2E800C2F20000DB
:10377000406980472146BDE81040084749F2A01043
:10378000C0F600000068004748F6E061C0F600019E
:1037900089690847B0B52DED048B0446092811D37B
:1037A00049F2AC00C0F60000016A33A0884749F234
:1037B000D400C0F6000001692046BDEC048BBDE8D2
:1037C000B040084740F29850C2F200000121017059
:1037D00016A101EB840148F6E06091ED000A9FED2F
:1037E0001C9AC0F600000568806820EE098AB0EED9
:1037F000480A804717A000EB840090ED000A20EEF5
:10380000099AB0EE490AA84749F29000C0F60000B4
:1038100004688068B0EE480A8047B0EE490A204646
:10382000BDEC048BBDE8B040004700BF9A59E443AB
:103830009A59D0439A59E4439A59E4439A59D04348
:103840009A59E4439A59E4439A5980439A59E44374
:103850003EC3AE38000048420000A0420000C8420B
:103860000000FA42000020430000484300007A4371
:103870000000C8430000FA434552524F523A2055C7
:103880006E636F7272656374206D6F6465200000F3
:103890007047000010B540F29850C2F200000021BD
:1038A000017048F60C70C0F600000168846A0020C0
:1038B0008847A04748F6A860C0F6000001680020CD
:1038C000BDE8104008470000B0B540F2BC34C2F279
:1038D00000046068042818BFB0BD40F29005C2F231
:1038E000000569692020286009B120688847A96A15
:1038F00019B12068BDE8B0400847B0BD014649F2A3
:103900003400C0F60000426940F26820C2F20000B4
:103910001047000040F25031C2F200014860704789
:1039200070B540F20000C2F20000C06848F689019C
:10393000C8F68801A0FB011291090901A1EB9211BF
:10394000A0EBC100782808BF70BD49F23401C0F671
:1039500000014D6940F20004A0F17806C2F20004B3
:1039600020462021A8470136FAD370BD2DE9F04743
:10397000044644F6D350C1F26200A4FB000149F2B0
:103980003400C0F60000456940F200004FEA91188B
:10399000C2F200002021A8474BF27320C4F2E75086
:1039A000A4FB000148F68909880BC8F68809A0FB2A
:1039B000091251090901A1EB5211A0EB81014DF24D
:1039C0006040C2F2000000F10F074CF6CD4ACCF681
:1039D000CC4A3E46A1FB0A02D20802EB8200A1EBD0
:1039E000400040F0300006F8010D09291146F1D8D9
:1039F00040F20004C2F20004C1B22046A84716F803
:103A0000010F0028F8D140F20000C2F200003A2174
:103A1000A847A8FB090148090001A0EB5110A8EB39
:103A2000800100BFA1FB0A02D20802EB8200A1EBD9
:103A3000400040F0300007F8010D09291146F1D887
:103A400040F20004C2F20004C1B22046A84717F8B1
:103A5000010F0028F8D1BDE8F087000043F604000C
:103A6000C4F2020050F8041C41F4803140F8041CF8
:103A700050F8041C89035CBF50F8041C5FEA8131D4
:103A800007D450F8041C890303D450F8041C89039C
:103A9000EED5016847F6C07221F48001016001682B
:103AA00041F480010160016821F03F01016001687B
:103AB00041F009010160016891430160016841F42E
:103AC00048510160016821F44031016001680160E2
:103AD00050F8041C41F0807140F8041C50F8041C9C
:103AE00089010CD450F8041C89015CBF50F8041CF7
:103AF0005FEA811103D450F8041C8901EED54168B6
:103B000021F4E0514160416841F4A05141604168B5
:103B100021F460414160416841F4004141604168E5
:103B200021F003014160416841F0020141607047AA
:103B300043F20800C4F20100552101710168C90770
:103B400009D10168C90704BF01685FEAC17102D1E8
:103B50000168C907F2D04068C0B2704740F27030C7
:103B6000C2F2000090ED010A7047000040F2D83028
:103B7000C2F2000090ED010A70470000B0B52DEDD3
:103B8000068B40F27034C2F200049FED2A1AB0EEA8
:103B9000408A84ED010A9FED260A28EE01AA28EE4C
:103BA000009AB0EE4A0A04F09BFD40F24015C2F2C2
:103BB000000585ED080AB0EE4A0A04F0F9FE9FED13
:103BC0001E1A85ED090A28EE01AAB0EE4A0A04F091
:103BD00087FD85ED0A0AB0EE4A0A04F0E9FE85ED9C
:103BE0000B0AB0EE490A04F07BFD85ED0C0AB0EE3D
:103BF000490A04F0DDFE9FED111A85ED0D0A28EE4D
:103C0000018AB0EE480A04F06BFD85ED0E0AB0EEB5
:103C1000480A04F0CDFE4FF07E50002185ED0F0ADA
:103C2000C5E90101C4E90211BDEC068BB0BD00BFBE
:103C3000DB0FC940E4CB96C1DB0FC9C0E4CB964192
:103C40002DE9F04F81B02DED068B48F68060C0F66F
:103C5000000040F2D8384068C2F2000888ED010A3E
:103C6000804798ED01AA9FED681A9FED660A2AEE3B
:103C7000019A2AEE008AB0EE490A04F031FD88ED7F
:103C8000180AB0EE490A04F093FE88ED190AB0EE66
:103C9000480A04F025FD88ED1A0AB0EE480A04F03F
:103CA00087FE9FED5A1A88ED1B0A2AEE018AB0EEB4
:103CB000480A04F015FD88ED1C0AB0EE480A04F02D
:103CC00077FE9FED531A88ED1D0A2AEE018AB0EEA9
:103CD000480A04F005FD40F25049C2F2000989ED9E
:103CE000000AB0EE480A04F063FE41F69C6C41F213
:103CF0009C6E40F69C6A40F29C6B4FF07E51002017
:103D0000C2F2000CC2F2000EC2F2000AC2F2000BB4
:103D1000002689ED010AC8E91010C8E91210C8E9A7
:103D20001410C8E91610C9E90200C9E90400C9E97C
:103D30000600C9E90800C8F8080000BF0CEB06023D
:103D40004CF806005060C2E90200C2E90400C2E972
:103D50000600D2E906430EEB06010AEB06050BEB63
:103D60000607C2E90800C2E90A004EF806004860EA
:103D70004AF8060068604BF806007860C1E9020066
:103D8000C5E90200C7E90200C1E90400C5E9040071
:103D9000C7E90400C1E90643C5E90643C7E906438C
:103DA000D36A4036B6F5006F086228623862C2E90D
:103DB0000C00C2E90E00C1E90900C1E90B30C1E9FC
:103DC0000D00C863C5E90900C5E90B30C5E90D0060
:103DD000E863C7E90900C7E90B30C7E90D00F863DC
:103DE000ACD10020C8E90300C9E90A00C9E90C0008
:103DF000C9E90E00C9E91000BDEC068B01B0BDE8B1
:103E0000F08F00BFDB0FC940E4CB9641DB0FC9C088
:103E1000E4CB96C140F27030C2F2000090ED040A8B
:103E20007047000040F2D830C2F2000090ED050A61
:103E30007047000010B52DED028B9FED111A40F276
:103E40007030C2F2000020EE018A80ED040AB0EE6C
:103E5000480A04F045FC40F24014C2F2000484ED2C
:103E6000050AB0EE480A04F0A3FD4FF07E50002191
:103E700084ED060AC4E90301BDEC028B10BD00BF4E
:103E8000DB0FC94010B52DED028B9FED122A40F2D9
:103E9000D83020EE028AB1EE401AC2F20000B0EE35
:103EA000480A80ED051A04F01BFC40F28014C2F2AF
:103EB000000484ED030AB0EE480A04F079FD4FF0E7
:103EC0007E50002184ED040AC4E90101BDEC028B9F
:103ED00010BD00BFDB0FC9C010B549F2AC00C0F681
:103EE0000000016A16A0884749F2D40040F2340469
:103EF000C0F60000C2F2000401682068884740F262
:103F0000A030C2F2000001684AF2B023C0F291036F
:103F10002022B3EB511F226018BF10BD01F01F011A
:103F20002160002141602421C4F2000109684CF69F
:103F3000CD42CCF6CC42A1FB0212D108816010BD6B
:103F40004552524F523A20756E737570706F72748D
:103F5000656420636F6D6D616E64200010B549F279
:103F6000AC00C0F60000016A16A0884749F2D400F0
:103F700040F29004C0F60000C2F20004016820681C
:103F8000884740F2BC30C2F2000001684AF2B02318
:103F9000C0F291032022B3EB511F226018BF10BD65
:103FA00001F01F012160002141602421C4F20001C1
:103FB00009684CF6CD42CCF6CC42A1FB0212D108E6
:103FC000816010BD4552524F523A204455432072F1
:103FD000657475726E656420756E757365642063B3
:103FE0006F6D6D616E64200010B549F2AC00C0F6D3
:103FF0000000016A16A0884749F2D40040F2BC04D0
:10400000C0F60000C2F2000401682068884740F250
:10401000C830C2F2000001684AF2B023C0F2910336
:104020002022B3EB511F226018BF10BD01F01F0109
:104030002160002141602421C4F2000109684CF68E
:10404000CD42CCF6CC42A1FB0212D108816010BD5A
:104050004552524F523A204444432072657475725F
:104060006E656420756E7573656420636F6D6D6138
:104070006E64200080B549F2AC00C0F60000016A11
:1040800009A0884749F2D400C0F60000016840F258
:104090008430C2F20000C07A884740F20410C2F2B5
:1040A00000004121016080BD4552524F523A2075B7
:1040B0006E737570706F7274656420636F6D6D617F
:1040C0006E642000B0B549F23400C0F6000040F242
:1040D0000424456AC2F2000445F20F61C1F23421A2
:1040E0002046A847204600212A46BDE8B040104798
:1040F000B0B549F23400C0F6000040F2DC14456A65
:10410000C2F2000445F20761C1F234212046A847FB
:10411000204600212A46BDE8B040104740F29850A2
:10412000C2F20000002101707047000040F27030C0
:1041300040F2401240F2001CC2F200000021C2F224
:1041400000024FF07E53C0F2023CC0E90111C2E907
:104150000831C2E90A31C2E90C31C2E90E31C1604D
:104160000161C2E900C3C2E90213C2E9041391610B
:10417000704700002DE9F04F40F2D83C40F2504E1D
:1041800041F69C6841F29C6940F69C6A40F29C6B47
:10419000C2F2000C00224FF07E50C2F2000EC2F2BA
:1041A0000008C2F20009C2F2000AC2F2000B0025A8
:1041B000CCF80420CCE91002CCE91202CCE91402BC
:1041C000CCE91602CCE91802CCE91A02CCE91C02AF
:1041D000CEE90822CEE90002CEE90222CEE904228D
:1041E000CEE9062208EB050048F805204260C0E948
:1041F0000222C0E90422C0E90622D0E9064109EB07
:1042000005030AEB05070BEB0506C0E90822C0E928
:104210000A2249F805205A604AF805207A604BF8CE
:1042200005207260C3E90222C7E90222C6E9022220
:10423000C3E90422C7E90422C6E90422C3E906410E
:10424000C7E90641C6E90641C16A4035B5F5006FC8
:104250001A623A623262C0E90C22C0E90E22C3E956
:104260000922C3E90B12C3E90D22DA63C7E9092267
:10427000C7E90B12C7E90D22FA63C6E90922C6E9AC
:104280000B12C6E90D22F263ACD140F2801140F26C
:1042900000120020C2F20001C0F202324FF07E5341
:1042A0008CF80000CEE90A00CEE90C00CEE90E0041
:1042B000CEE91000CCE90200CCE90400C1E90023FA
:1042C000C1E902030861BDE8F08F000040F2503000
:1042D000C2F200000021416070470000B0B540F21A
:1042E000643447F6A830C2F200040025C2F2000090
:1042F0008021A560FBF7F6FFC4E90055B0BD0000C2
:10430000B0B549F2FC00C0F6000040F24024C2F211
:104310000004D0E9002501202146904740F23800F2
:10432000C2F2000001682046884740F22C21C2F208
:10433000000101202A46BDE8B0401047B0B549F25F
:10434000FC00C0F6000040F25424C2F20004D0E9A0
:10435000002505202146904740F20810C2F20000D7
:1043600001682046884740F2A010C2F200000068B1
:10437000804740F26821C2F2000105202A46BDE8CC
:10438000B0401047B0B59FED7F1A20EE011AB5EE90
:10439000401AF1EE10FA40F3F4809FED7B1A20EE04
:1043A000010ABCEEC00A10EE100AA0F1110140F2A1
:1043B0000110A1FB00028B1A02EB53024EF218000F
:1043C000D30DCEF200001B06A3EBD2530268CB1A2A
:1043D0000468141B24F07F449C4211D20568551BCD
:1043E00025F07F459D420BD20568551B25F07F4582
:1043F0009D4205D20568551B25F07F459D42E7D3B8
:104400000022B2EB116F00F0BC804FEA116E4FF644
:104410002871C0F2FF011EF00304AEF1010C34D08C
:10442000026801F1D00300BF0568551B1D408D4295
:104430000ED20568551B1D408D4209D20568551BDB
:104440001D408D4204D20568551B1D408D42EBD3A3
:10445000012C624632D002680568551B1D408D4212
:104460000ED20568551B1D408D4209D20568551BAB
:104470001D408D4204D20568551B1D408D42EBD373
:10448000022C04D1AEF1020218E0724616E0026876
:104490000468141B1C408C420ED20468141B1C4080
:1044A0008C4209D20468141B1C408C4204D204685C
:1044B000141B1C408C42EBD3AEF10302BCF1030F82
:1044C00038BFB0BD01F1D00302E000BF043A58D0BC
:1044D000046800BF0568651B1D408D420ED205684B
:1044E000651B1D408D4209D20568651B1D408D422C
:1044F00004D20568651B1D408D42EBD3046800BFE4
:104500000568651B1D408D420ED20568651B1D4068
:104510008D4209D20568651B1D408D4204D2056895
:10452000651B1D408D42EBD3046800BF0568651B09
:104530001D408D420ED20568651B1D408D4209D27B
:104540000568651B1D408D4204D20568651B1D4032
:104550008D42EBD3046800BF0568651B1D408D428A
:10456000B4D20568651B1D408D42AFD20568651B3E
:104570001D408D42AAD20568651B1D408D42EBD3BC
:10458000A4E7B0BD002474490050434D2DE9F04F1D
:1045900081B02420C4F2000002684CF6CD41CCF674
:1045A000CC4140F22836A2FB0123C2F20006F26998
:1045B000C2EBD3025A2A3CBF01B0BDE8F08F0068BD
:1045C000A0FB0101C808F06149F2B410C0F6000078
:1045D000416AD0F8AC50884749F2AC01C0F60001FE
:1045E000D1E908A7306243A0D1F800800C69D04718
:1045F00049F23010C0F60000006880473FA151F832
:104600002000B84749F6CE09C0F600094846D04711
:10461000A8473CA151F82000B8474846D04796F833
:104620002300A04749F6DE05C0F600052846D0471E
:1046300096F82200A0472846D04796F82100A047C8
:104640002846D04796F82000A04730A0D04730A099
:10465000D047306848F64C51C0F6000151F82000B0
:10466000B8474846D047706848F6585BC0F6000B1C
:104670005BF82000B8474846D047B068C04725A03F
:10468000D04748F6A860C0F6000000F1180532CD0A
:104690008847A047A84721A0D047F06848F64C516A
:1046A000C0F6000151F82000B8474846D0473069AD
:1046B0005BF82000B8474846D0477069C04718A04B
:1046C000D047B069C04717A0D04748F60C70C0F675
:1046D000000000F1180532CD8847A047A847F069CF
:1046E000FFF744F9FFF71CF90FA0514601B0BDE8F0
:1046F000F04F08474554482800000000C9990008B9
:10470000D9980008AF990008AA990008292000004C
:1047100044280000487A2920000000004D280000AD
:10472000487A2000252900000D00000010B52DED6D
:10473000048B42F2A860C2F20000016849F234041E
:104740004A1CB0EE608AB0EE409A02608806C0F65D
:10475000000409D1626A40F2B01045F20061C2F271
:104760000000C1F234219047216B40F2B010C2F238
:104770000000B0EE490AF0EE480ABDEC048BBDE83B
:1047800010400847B0B540F28434C2F20004E0683B
:10479000012818BFB0BD49F2AC0140F20415C0F6C3
:1047A0000001C2F200054120096A286007A088477D
:1047B00049F2D400C0F600000168E07A88476969D0
:1047C00019B1E07ABDE8B0400847B0BD53697A65D9
:1047D000207061636B6574200000000043F64400A4
:1047E000C4F20200016841F48051016043F200000C
:1047F000C4F20100016821F002010160016821F0AA
:1048000001010160016821F080010160016841F04F
:1048100004010160016821F400710160016841F444
:1048200000710160016821F480710160016841F448
:1048300080710160016841F0400101607047000033
:10484000B0B549F23400C0F6000040F20424456AD5
:10485000C2F2000445F21661C1F234212046A84795
:10486000204600212A46BDE8B040104740F2BC3047
:10487000C2F200004168042918BF704740F290025C
:10488000C2F20002516A2023136009B10068084790
:1048900070470000B0B549F23400C0F6000040F2A5
:1048A000DC14456AC2F2000445F21661C1F23421FB
:1048B0002046A847204600212A46BDE8B0401047C0
:1048C00040F2C830C2F200004168042918BF7047A6
:1048D00040F2BC02C2F20002516A2023136009B107
:1048E0000068084770470000B0B549F23400C0F6D0
:1048F000000040F20424456AC2F2000445F214614B
:10490000C1F234212046A847204600212A46BDE8AE
:10491000B040104740F2BC30C2F2000041680429A8
:1049200018BF704740F29002C2F20002D169202302
:10493000136009B10068084770470000B0B549F23C
:104940003400C0F6000040F2DC14456AC2F20004F4
:1049500045F21461C1F234212046A84720460021C7
:104960002A46BDE8B040104740F2C830C2F200000D
:104970004168042918BF704740F2BC02C2F200022D
:10498000D1692023136009B100680847704700000F
:10499000B0B549F23400C0F6000040F20424456A84
:1049A000C2F2000445F21561C1F234212046A84745
:1049B000204600212A46BDE8B040104740F2BC30F6
:1049C000C2F200004168042918BF704740F290020B
:1049D000C2F20002116A2023136009B1006808477F
:1049E00070470000B0B549F23400C0F6000040F254
:1049F000DC14456AC2F2000445F21561C1F23421AB
:104A00002046A847204600212A46BDE8B04010476E
:104A100040F2C830C2F200004168042918BF704754
:104A200040F2BC02C2F20002116A2023136009B1F5
:104A3000006808477047000080B549F2D400C0F60E
:104A40000000016A10A0884748F60C70C0F600000C
:104A5000006B804748F6A860C0F60000406A8047B7
:104A600040F29400C2F200000021C0E90111C0E947
:104A70000311416140F2C000C2F20000C0E901111F
:104A8000C0E90311416180BD486F72697A6F6E2081
:104A90007761732073746F706564000010B549F21C
:104AA000D40140F20414C0F60001C2F20004412017
:104AB000096A206004A088472069002808BF10BD4B
:104AC000BDE81040004700BF53746F700000000045
:104AD00080B549F2D400C0F60000016A10A08847F2
:104AE00048F60C70C0F60000006B804748F6A860DE
:104AF000C0F60000406A804740F29400C2F2000015
:104B00000021C0E90111C0E90311416140F2C00078
:104B1000C2F20000C0E90111C0E90311416180BD8A
:104B200053746F726F6E61207761732073746F704E
:104B3000656400004EF68850CEF2000001684FF028
:104B4000000C41F47001016043F60001C4F202015F
:104B50000A6842F001020A60C1F808C00B684FF60B
:104B6000FF72CFF6F6621A400A6043F21002C2F2F8
:104B700000424A600A6822F480220A60C1F80CC030
:104B80004FF0006140F8801C704700004EF21000AA
:104B9000CEF200004FF0FF314160816005210160DD
:104BA0007047000043F64000C4F20200016841F083
:104BB000010101602820C4F2000042F2FF7101608F
:104BC0000F2141604FF08040016841F00101016018
:104BD0007047000041F20000C4F20100016801606A
:104BE00049F234014068C0F600014A69C1B240F29E
:104BF0007C20C2F20000104744F20040C4F20000E2
:104C00000168016049F234014068C0F600014A6958
:104C1000C1B240F2F010C2F20000104744F60000AA
:104C2000C4F200000168016049F234014068C0F636
:104C300000014A69C1B240F21820C2F200001047D8
:104C400043F64000C4F202004168322241F01001F4
:104C5000416041F20C01C4F2010141F8042C0A68E0
:104C600042F008020A600A6842F004020A600A6818
:104C700042F020020A608A6842F080028A608A68F4
:104C800042F400728A608A6842F480728A600A681C
:104C900042F400520A600168142241F400310160BC
:104CA00044F20C41C4F2000141F8042C0B6843F0BB
:104CB00008030B600B6843F004030B600B6843F0C0
:104CC00020030B608B6843F080038B600B6843F418
:104CD00000530B60036843F48023036044F60C0028
:104CE000C1F8FC23C4F20000016841F00801016032
:104CF000016841F004010160016841F02001016098
:104D0000816841F080018160016841F400510160D7
:104D1000704700002DE9F04381B049F23407C0F636
:104D2000000739680446884738B146F20C46C4F299
:104D300002060546D6F8B00010B101B0BDE8F08318
:104D400041F20008C4F20108D8F800000006F4D5CA
:104D5000D7E90319204688472F1A204698BF2F46C7
:104D6000C84761682269084408F10401C6F8B070B8
:104D7000C6F8B410C6F8B800306840F00060306083
:104D8000D6F8AC0040F00100C6F8AC00D0192061A4
:104D900001B0BDE8F08300002DE9F04381B049F295
:104DA0003407C0F6000739680446884738B146F230
:104DB0000C06C4F202060546D6F8980010B101B000
:104DC000BDE8F08344F20048C4F20008D8F80000BF
:104DD0000006F4D5D7E90319204688472F1A204644
:104DE00098BF2F46C84761682269084408F104014A
:104DF000C6F89870C6F89C10C6F8A000306840F459
:104E000000103060D6F8940040F00100C6F894001D
:104E1000D019206101B0BDE8F08300002DE9F04316
:104E200081B049F23407C0F6000739680446884764
:104E300030B146F20806C4F202060546706D10B1A4
:104E400001B0BDE8F08344F60008C4F20008D8F8C9
:104E500000000006F4D5D7E90319204688472F1A29
:104E6000204698BF2F46C84761682269084408F168
:104E700004017765B165F065306840F0006030602E
:104E8000306D40F001003065D019206101B0BDE8FF
:104E9000F083000070B52421C4F2000108684CF6CC
:104EA000CD42CCF6CC42A0FB020340F25030C2F21D
:104EB00000000668B6EBD30F1DD00968A1FB0212F3
:104EC0004168D2080A29026015D840F2A014C2F243
:104ED0000004E068002808BF70BD48F60C71C0F6F9
:104EE0000001CD6A8047A8476FF03E06E068804722
:104EF000A8470136FAD370BD70B5044648F69460F1
:104F0000C0F600000668006994EC020A0D4680476E
:104F10009FED091A94ED012A31EE401A94ED000A32
:104F200062EE010A20EE010A84EC020A95EC021AF4
:104F3000B04784EC020A70BD48E1FA3F42F2AC602F
:104F4000C2F200009FED191A90ED002A20EE011A1E
:104F50009FED173A9FED185A32EE011A9FED154A50
:104F6000B4EE431A20EE050AF1EE10FAC8BFB0EE17
:104F7000431AB4EE441A32EE002AF1EE10FAB4EEFF
:104F8000432AB8BFB0EE441AF1EE10FAC8BFB0EE33
:104F9000432AB4EE442AB0EE410AF1EE10FAB8BF4B
:104FA000B0EE442A80ED002A704700BF17B7D13811
:104FB000ACC5A737ACC5A7B7BD37863510B540F22D
:104FC0006434C2F20004206847F6A831013000F0D2
:104FD0001F00C2F20001206001EB800090ED001A7A
:104FE00094ED012A30EE411A32EE011A9FED132A98
:104FF00080ED000A21EE020A84ED011A03F018FC8C
:105000009FED0F1A94ED022A20EE010A32EE000AFB
:10501000B1EE001AB4EE410AF1EE10FAC8BFB0EEDC
:10502000410AB8EE001AB4EE410AF1EE10FAB8BF28
:10503000B0EE410A84ED020A10BD00BF0000003D41
:105040000AD723BCB0B51020C4F2020042F2B0650A
:105050000068C2F2000501212A7821EA1024944256
:1050600014D049F2AC00C0F60000016A08A02C7010
:10507000884749F2D400C0F60000416A287848F613
:105080006C52C0F6000252F8200088472046B0BD9E
:105090005573622000000000B0B548F64070C0F6BD
:1050A000000045680020A84704460420A8470146A0
:1050B00040F2E800C2F2000082682046BDE8B0403D
:1050C0001047000040F2BC30C2F2000041680429E1
:1050D00018BF704740F29002C2F20002D16820234C
:1050E000136009B1006808477047000040F2C830FB
:1050F000C2F200004168042918BF704740F2BC02A8
:10510000C2F20002D1682023136009B10068084789
:1051100070470000B0B549F23400C0F6000040F21C
:105120000424456AC2F2000445F20C61C1F2342144
:105130002046A847204600212A46BDE8B040104737
:10514000B0B549F23400C0F6000040F2DC14456A04
:10515000C2F2000445F20461C1F234212046A8479E
:10516000204600212A46BDE8B040104770B549F2FC
:105170003401C0F6000140F204254E6AC2F2000577
:1051800045F20B610446C1F234212846B047284657
:1051900021463246BDE870401047000070B549F224
:1051A0003401C0F6000140F2DC154E6AC2F200057F
:1051B00045F203610446C1F234212846B04728462F
:1051C00021463246BDE870401047000043F2080116
:1051D000C4F2010108710868C00709D10868C00756
:1051E00004BF08685FEAC07002D10868C007F2D047
:1051F00048687047B0B549F20810C0F60000D0E921
:1052000000450020A0473920A0470120A04728469C
:10521000BDE8B04000470000B0B549F20810C0F644
:105220000000D0E900450020A0470120A04703204E
:10523000A047A8474DF67444C2F20004E070A847A6
:10524000A070A8476070A84720702068B0BD00001B
:1052500070B5044649F20810C0F600000668002048
:10526000250EB0470120B0470720B0472846B04779
:10527000C4F30740B047C4F30720B047E0B231465B
:10528000BDE8704008470000B0B549F20810C0F60C
:105290000000D0E900450020A0471520A0470120CC
:1052A000A0472846BDE8B04000470000B0B549F22D
:1052B0000810C0F60000D0E900450020A0471320E8
:1052C000A0470220A047A8474DF67044C2F2000450
:1052D0006070A84720702088B0BD000070B50446FB
:1052E00049F20810C0F6000006680020250AB04701
:1052F0001320B0470620B0472846B047E0B23146F9
:10530000BDE8704008470000B0B549F20810C0F68B
:105310000000D0E900450020A0471620A04701204A
:10532000A0472846BDE8B04000470000B0B549F2AC
:105330000811C0F600010D6804460020A847162099
:10534000A8470520A84720462946BDE8B0400847A1
:10535000B0B549F20811C0F600010D6804460020FE
:10536000A8471520A8470520A84720462946BDE89C
:10537000B0400847B0B549F20810C0F60000D0E9C7
:1053800000450020A0470020A0470120A047284654
:10539000BDE8B04000470000B0B549F20811C0F6C2
:1053A00000010D6804460020A8470020A8470520FA
:1053B000A84720462946BDE8B0400847B0B549F2A5
:1053C0000810C0F60000D0E900450020A0472E20BC
:1053D000A0470120A047A847C0F38000B0BD00004F
:1053E000B0B549F20810C0F60000D0E90045002031
:1053F000A0472E20A0470120A047A84700F00100A9
:10540000B0BD0000B0B549F20810C0F60000D0E908
:1054100000450020A0472E20A0470120A047A84714
:10542000C0F38010B0BD0000B0B549F20811C0F65D
:1054300000010D6884010020A8472E20A847052000
:10544000A847E0B22946BDE8B0400847B0B549F2E8
:105450000810C0F60000D0E900450020A0472E202B
:10546000A0470120A047A847C0F3C200B0BD00007C
:10547000B0B549F20811C0F600010D68C400002063
:10548000A8472E20A8470520A847E0B22946BDE836
:10549000B0400847B0B549F20810C0F60000D0E9A6
:1054A00000450020A0472E20A0470120A047A84784
:1054B000C009B0BDB0B549F20811C0F600010D68D1
:1054C000C4010020A8472E20A8470520A847E0B225
:1054D0002946BDE8B0400847B0B549F20810C0F60B
:1054E0000000D0E900450020A0472E20A047012061
:1054F000A047A847C0F34000B0BD000070B549F216
:105500000810C0F60000D0E900540020A8471E2073
:10551000A8470120A847A04743F6B866C2F2000694
:1055200070710020A8471F20A8470120A847A04766
:1055300030710020A8472020A8470120A847A04795
:10554000F0700020A8472120A8470120A847A047C5
:10555000B0700020A8472220A8470120A847A047F4
:1055600070700020A8472320A8470120A847A04723
:105570003070D6E9000170BD70B50D4649F20811D2
:10558000C0F600010E6804460020B0471E20B04758
:105590000520B047C5F30720B0470020B0471F20C3
:1055A000B0470520B047E8B2B0470020B047202000
:1055B000B0470520B047200EB0470020B04721205B
:1055C000B0470520B047C4F30740B0470020B047BC
:1055D0002220B0470520B047C4F30720B047002081
:1055E000B0472320B0470520B047E0B23146BDE8C0
:1055F00070400847B0B549F20810C0F60000D0E985
:1056000000450020A0471D20A0470120A0472846B4
:10561000BDE8B04000470000B0B549F20811C0F63F
:1056200000010D6804460020A8471D20A84705205A
:10563000A84720462946BDE8B0400847B0B549F222
:105640000810C0F60000D0E900450020A0471C204B
:10565000A0470120A0472846BDE8B0400047000011
:10566000B0B549F20811C0F600010D6804460020EB
:10567000A8471C20A8470520A84720462946BDE882
:10568000B0400847B0B549F20810C0F60000D0E9B4
:1056900000450020A0472620A0470220A047A84799
:1056A0004DF67044C2F200046070A8472070208854
:1056B000B0BD000070B5044649F20810C0F6000005
:1056C00006680020250AB0472620B0470620B047CC
:1056D0002846B047E0B23146BDE8704008470000B8
:1056E000B0B549F20810C0F60000D0E9004500202E
:1056F000A0472420A0470220A047A8474DF67044A9
:10570000C2F200046070A84720702088B0BD00007D
:1057100070B5044649F20810C0F600000668002083
:10572000250AB0472420B0470620B0472846B04796
:10573000E0B23146BDE8704008470000B0B549F21C
:105740000810C0F60000D0E900450020A0471B204B
:10575000A0470120A0472846BDE8B0400047000010
:10576000B0B549F20811C0F600010D6804460020EA
:10577000A8471B20A8470520A84720462946BDE882
:10578000B0400847B0B549F20810C0F60000D0E9B3
:1057900000450020A0471920A0470220A047A847A5
:1057A0004DF67044C2F200046070A8472070208853
:1057B000B0BD000070B5044649F20810C0F6000004
:1057C00006680020250AB0471920B0470620B047D8
:1057D0002846B047E0B23146BDE8704008470000B7
:1057E000B0B549F20810C0F60000D0E9004500202D
:1057F000A0471720A0470120A0472846BDE8B04099
:1058000000470000B0B549F20810C0F60000D0E92A
:1058100000450020A0471820A0470120A0472846A7
:10582000BDE8B04000470000B0B549F20811C0F62D
:1058300000010D6804460020A8471820A84705204D
:10584000A84720462946BDE8B0400847B0B549F210
:105850000811C0F600010D6804460020A847172073
:10586000A8470520A84720462946BDE8B04008477C
:1058700070B549F20810C0F60000D0E900540020CD
:10588000A8470920A8470120A847A04743F6C066BB
:10589000C2F2000670710020A8470A20A847012024
:1058A000A847A04730710020A8470B20A847012037
:1058B000A847A047F0700020A8470C20A847012067
:1058C000A847A047B0700020A8470D20A847012096
:1058D000A847A04770700020A8470E20A8470120C5
:1058E000A847A0473070D6E9000170BD70B50D46DD
:1058F00049F20811C0F600010E6804460020B047C6
:105900000920B0470520B047C5F30720B047002065
:10591000B0470A20B0470520B047E8B2B0470020A2
:10592000B0470B20B0470520B047200EB0470020FD
:10593000B0470C20B0470520B047C4F30740B0473C
:105940000020B0470D20B0470520B047C4F3072022
:10595000B0470020B0470E20B0470520B047E0B266
:105960003146BDE870400847B0B549F20810C0F6AE
:105970000000D0E900450020A0470F20A0470320E9
:10598000A047A8474DF67444C2F20004E070A8474F
:10599000A070A8476070A84720702068B0BD0000C4
:1059A00070B5044649F20810C0F6000006680020F1
:1059B000250EB0470F20B0470720B0472846B04714
:1059C000C4F30740B047C4F30720B047E0B2314604
:1059D000BDE8704008470000B0B549F20810C0F6B5
:1059E0000000D0E900450020A0470520A047032083
:1059F000A047A8474DF67444C2F20004E070A847DF
:105A0000A070A8476070A84720702068B0BD000053
:105A100070B5044649F20810C0F600000668002080
:105A2000250EB0470520B0470720B0472846B047AD
:105A3000C4F30740B047C4F30720B047E0B2314693
:105A4000BDE8704008470000B0B549F20810C0F644
:105A50000000D0E900450020A0472820A0470320EF
:105A6000A047A8474DF67444C2F20004E070A8476E
:105A7000A070A8476070A84720702068B0BD0000E3
:105A8000B0B549F20810C0F60000D0E9004500208A
:105A9000A0472C20A0470220A047A8474DF67044FD
:105AA000C2F200046070A84720702088B0BD0000DA
:105AB00020EE000A20EEA01A30EE010AB1EEC00A74
:105AC0007047000020EE000A20EEA01A30EE010A16
:105AD0007047000031EE000A71EEA00A7047000026
